{
  "_format": "hh-sol-artifact-1",
  "contractName": "Insure",
  "sourceName": "contracts/Insure.sol",
  "abi": [
    {
      "inputs": [
        {
          "internalType": "uint256[]",
          "name": "_expiryDates",
          "type": "uint256[]"
        },
        {
          "internalType": "address",
          "name": "_usdAddress",
          "type": "address"
        }
      ],
      "stateMutability": "nonpayable",
      "type": "constructor"
    },
    {
      "inputs": [
        {
          "internalType": "uint256",
          "name": "prod1",
          "type": "uint256"
        }
      ],
      "name": "PRBMath__MulDivFixedPointOverflow",
      "type": "error"
    },
    {
      "anonymous": false,
      "inputs": [
        {
          "indexed": true,
          "internalType": "address",
          "name": "provider",
          "type": "address"
        }
      ],
      "name": "NewPolicyAvailability",
      "type": "event"
    },
    {
      "anonymous": false,
      "inputs": [
        {
          "indexed": true,
          "internalType": "address",
          "name": "taker",
          "type": "address"
        },
        {
          "indexed": true,
          "internalType": "address",
          "name": "provider",
          "type": "address"
        },
        {
          "indexed": false,
          "internalType": "uint256",
          "name": "expiry",
          "type": "uint256"
        },
        {
          "indexed": false,
          "internalType": "uint256",
          "name": "lots",
          "type": "uint256"
        },
        {
          "indexed": false,
          "internalType": "uint256",
          "name": "price",
          "type": "uint256"
        },
        {
          "indexed": false,
          "internalType": "bool",
          "name": "policyPaid",
          "type": "bool"
        }
      ],
      "name": "PositionClosed",
      "type": "event"
    },
    {
      "anonymous": false,
      "inputs": [
        {
          "indexed": true,
          "internalType": "address",
          "name": "taker",
          "type": "address"
        },
        {
          "indexed": true,
          "internalType": "address",
          "name": "provider",
          "type": "address"
        },
        {
          "indexed": false,
          "internalType": "uint256",
          "name": "expiry",
          "type": "uint256"
        },
        {
          "indexed": false,
          "internalType": "uint256",
          "name": "lots",
          "type": "uint256"
        },
        {
          "indexed": false,
          "internalType": "uint256",
          "name": "price",
          "type": "uint256"
        }
      ],
      "name": "PositionOpened",
      "type": "event"
    },
    {
      "inputs": [
        {
          "internalType": "address",
          "name": "",
          "type": "address"
        },
        {
          "internalType": "uint256",
          "name": "",
          "type": "uint256"
        }
      ],
      "name": "activeProviderTakers",
      "outputs": [
        {
          "internalType": "address",
          "name": "",
          "type": "address"
        }
      ],
      "stateMutability": "view",
      "type": "function"
    },
    {
      "inputs": [
        {
          "internalType": "address",
          "name": "",
          "type": "address"
        },
        {
          "internalType": "uint256",
          "name": "",
          "type": "uint256"
        }
      ],
      "name": "activeTakersPolicies",
      "outputs": [
        {
          "internalType": "address",
          "name": "provider",
          "type": "address"
        },
        {
          "internalType": "uint256",
          "name": "lots",
          "type": "uint256"
        },
        {
          "internalType": "uint256",
          "name": "level",
          "type": "uint256"
        },
        {
          "internalType": "uint256",
          "name": "expiry",
          "type": "uint256"
        }
      ],
      "stateMutability": "view",
      "type": "function"
    },
    {
      "inputs": [
        {
          "internalType": "address",
          "name": "",
          "type": "address"
        }
      ],
      "name": "balance",
      "outputs": [
        {
          "internalType": "uint256",
          "name": "",
          "type": "uint256"
        }
      ],
      "stateMutability": "view",
      "type": "function"
    },
    {
      "inputs": [
        {
          "internalType": "address",
          "name": "_address",
          "type": "address"
        }
      ],
      "name": "checkPolicies",
      "outputs": [],
      "stateMutability": "nonpayable",
      "type": "function"
    },
    {
      "inputs": [
        {
          "internalType": "uint256[]",
          "name": "_expiry",
          "type": "uint256[]"
        }
      ],
      "name": "deleteProviderPolicies",
      "outputs": [],
      "stateMutability": "nonpayable",
      "type": "function"
    },
    {
      "inputs": [
        {
          "internalType": "uint256",
          "name": "_amount",
          "type": "uint256"
        }
      ],
      "name": "deposit",
      "outputs": [],
      "stateMutability": "nonpayable",
      "type": "function"
    },
    {
      "inputs": [
        {
          "internalType": "uint256",
          "name": "",
          "type": "uint256"
        }
      ],
      "name": "expiryDates",
      "outputs": [
        {
          "internalType": "bool",
          "name": "",
          "type": "bool"
        }
      ],
      "stateMutability": "view",
      "type": "function"
    },
    {
      "inputs": [
        {
          "internalType": "address",
          "name": "_addr",
          "type": "address"
        }
      ],
      "name": "getActiveProviderTakers",
      "outputs": [
        {
          "internalType": "address[]",
          "name": "",
          "type": "address[]"
        }
      ],
      "stateMutability": "view",
      "type": "function"
    },
    {
      "inputs": [
        {
          "internalType": "address",
          "name": "_addr",
          "type": "address"
        }
      ],
      "name": "getActiveTakersPolicies",
      "outputs": [
        {
          "components": [
            {
              "internalType": "address",
              "name": "provider",
              "type": "address"
            },
            {
              "internalType": "uint256",
              "name": "lots",
              "type": "uint256"
            },
            {
              "internalType": "uint256",
              "name": "level",
              "type": "uint256"
            },
            {
              "internalType": "uint256",
              "name": "expiry",
              "type": "uint256"
            }
          ],
          "internalType": "struct Insure.ActiveTakerData[]",
          "name": "",
          "type": "tuple[]"
        }
      ],
      "stateMutability": "view",
      "type": "function"
    },
    {
      "inputs": [
        {
          "internalType": "address",
          "name": "_providerAddr",
          "type": "address"
        },
        {
          "internalType": "uint256",
          "name": "_expiry",
          "type": "uint256"
        },
        {
          "internalType": "uint256",
          "name": "_lots",
          "type": "uint256"
        },
        {
          "internalType": "uint256",
          "name": "_level",
          "type": "uint256"
        },
        {
          "internalType": "uint256",
          "name": "_price",
          "type": "uint256"
        }
      ],
      "name": "openPolicy",
      "outputs": [],
      "stateMutability": "nonpayable",
      "type": "function"
    },
    {
      "inputs": [],
      "name": "oracleAddress",
      "outputs": [
        {
          "internalType": "address",
          "name": "",
          "type": "address"
        }
      ],
      "stateMutability": "view",
      "type": "function"
    },
    {
      "inputs": [],
      "name": "owner",
      "outputs": [
        {
          "internalType": "address",
          "name": "",
          "type": "address"
        }
      ],
      "stateMutability": "view",
      "type": "function"
    },
    {
      "inputs": [
        {
          "internalType": "address",
          "name": "",
          "type": "address"
        },
        {
          "internalType": "uint256",
          "name": "",
          "type": "uint256"
        }
      ],
      "name": "providers",
      "outputs": [
        {
          "internalType": "uint256",
          "name": "lots",
          "type": "uint256"
        },
        {
          "internalType": "uint256",
          "name": "level",
          "type": "uint256"
        },
        {
          "internalType": "uint256",
          "name": "price",
          "type": "uint256"
        }
      ],
      "stateMutability": "view",
      "type": "function"
    },
    {
      "inputs": [
        {
          "internalType": "address",
          "name": "_oracleAddress",
          "type": "address"
        }
      ],
      "name": "setOracle",
      "outputs": [],
      "stateMutability": "nonpayable",
      "type": "function"
    },
    {
      "inputs": [
        {
          "internalType": "uint256",
          "name": "_expiry",
          "type": "uint256"
        },
        {
          "internalType": "uint256",
          "name": "_lots",
          "type": "uint256"
        },
        {
          "internalType": "uint256",
          "name": "_level",
          "type": "uint256"
        },
        {
          "internalType": "uint256",
          "name": "_price",
          "type": "uint256"
        }
      ],
      "name": "setProviderInfo",
      "outputs": [],
      "stateMutability": "nonpayable",
      "type": "function"
    },
    {
      "inputs": [],
      "name": "usdAddress",
      "outputs": [
        {
          "internalType": "address",
          "name": "",
          "type": "address"
        }
      ],
      "stateMutability": "view",
      "type": "function"
    },
    {
      "inputs": [
        {
          "internalType": "uint256",
          "name": "_amount",
          "type": "uint256"
        }
      ],
      "name": "withdraw",
      "outputs": [],
      "stateMutability": "nonpayable",
      "type": "function"
    }
  ],
  "bytecode": "0x60806040523480156200001157600080fd5b50604051620032be380380620032be833981810160405281019062000037919062000221565b336000806101000a81548173ffffffffffffffffffffffffffffffffffffffff021916908373ffffffffffffffffffffffffffffffffffffffff16021790555060005b82518110156200010757600160036000858481518110620000c4577f4e487b7100000000000000000000000000000000000000000000000000000000600052603260045260246000fd5b6020026020010151815260200190815260200160002060006101000a81548160ff0219169083151502179055508080620000fe9062000347565b9150506200007a565b5080600160006101000a81548173ffffffffffffffffffffffffffffffffffffffff021916908373ffffffffffffffffffffffffffffffffffffffff160217905550505062000438565b6000620001686200016284620002a4565b6200027b565b905080838252602082019050828560208602820111156200018857600080fd5b60005b85811015620001bc5781620001a188826200020a565b8452602084019350602083019250506001810190506200018b565b5050509392505050565b600081519050620001d78162000404565b92915050565b600082601f830112620001ef57600080fd5b81516200020184826020860162000151565b91505092915050565b6000815190506200021b816200041e565b92915050565b600080604083850312156200023557600080fd5b600083015167ffffffffffffffff8111156200025057600080fd5b6200025e85828601620001dd565b92505060206200027185828601620001c6565b9150509250929050565b6000620002876200029a565b905062000295828262000311565b919050565b6000604051905090565b600067ffffffffffffffff821115620002c257620002c1620003c4565b5b602082029050602081019050919050565b6000620002e082620002e7565b9050919050565b600073ffffffffffffffffffffffffffffffffffffffff82169050919050565b6000819050919050565b6200031c82620003f3565b810181811067ffffffffffffffff821117156200033e576200033d620003c4565b5b80604052505050565b6000620003548262000307565b91507fffffffffffffffffffffffffffffffffffffffffffffffffffffffffffffffff8214156200038a576200038962000395565b5b600182019050919050565b7f4e487b7100000000000000000000000000000000000000000000000000000000600052601160045260246000fd5b7f4e487b7100000000000000000000000000000000000000000000000000000000600052604160045260246000fd5b6000601f19601f8301169050919050565b6200040f81620002d3565b81146200041b57600080fd5b50565b620004298162000307565b81146200043557600080fd5b50565b612e7680620004486000396000f3fe608060405234801561001057600080fd5b506004361061010b5760003560e01c8063a89ae4ba116100a2578063bae5f5c311610071578063bae5f5c3146102bb578063c6cce421146102d7578063ce8e80c114610307578063e3d670d714610337578063f4593156146103675761010b565b8063a89ae4ba1461021f578063aa4bfddb1461023d578063aa52d5831461026f578063b6b55f251461029f5761010b565b806373db107e116100de57806373db107e146101945780637adbf973146101c75780638da5cb5b146101e35780639e1a8613146102015761010b565b8063060491c514610110578063065689ab1461012c5780632e1a7d4d1461015c57806343d09c8514610178575b600080fd5b61012a60048036038101906101259190611fef565b610383565b005b61014660048036038101906101419190612018565b610625565b6040516101539190612587565b60405180910390f35b61017660048036038101906101719190612139565b610673565b005b610192600480360381019061018d9190612054565b6107fe565b005b6101ae60048036038101906101a99190612018565b61106e565b6040516101be9493929190612602565b60405180910390f35b6101e160048036038101906101dc9190611fef565b6110db565b005b6101eb6111ad565b6040516101f89190612587565b60405180910390f35b6102096111d1565b6040516102169190612587565b60405180910390f35b6102276111f7565b6040516102349190612587565b60405180910390f35b61025760048036038101906102529190612018565b61121d565b604051610266939291906128a1565b60405180910390f35b61028960048036038101906102849190611fef565b611254565b6040516102969190612647565b60405180910390f35b6102b960048036038101906102b49190612139565b611321565b005b6102d560048036038101906102d091906120cb565b61142c565b005b6102f160048036038101906102ec9190611fef565b611514565b6040516102fe9190612669565b60405180910390f35b610321600480360381019061031c9190612139565b611626565b60405161032e919061268b565b60405180910390f35b610351600480360381019061034c9190611fef565b611646565b60405161035e9190612886565b60405180910390f35b610381600480360381019061037c919061218b565b61165e565b005b6000600560008373ffffffffffffffffffffffffffffffffffffffff1673ffffffffffffffffffffffffffffffffffffffff168152602001908152602001600020805490501415610409576040517f08c379a000000000000000000000000000000000000000000000000000000000815260040161040090612806565b60405180910390fd5b60005b600560008373ffffffffffffffffffffffffffffffffffffffff1673ffffffffffffffffffffffffffffffffffffffff168152602001908152602001600020805490508110156106215742600560008473ffffffffffffffffffffffffffffffffffffffff1673ffffffffffffffffffffffffffffffffffffffff16815260200190815260200160002082815481106104ce577f4e487b7100000000000000000000000000000000000000000000000000000000600052603260045260246000fd5b90600052602060002090600402016003015410801561057557506000600560008473ffffffffffffffffffffffffffffffffffffffff1673ffffffffffffffffffffffffffffffffffffffff1681526020019081526020016000208281548110610561577f4e487b7100000000000000000000000000000000000000000000000000000000600052603260045260246000fd5b906000526020600020906004020160030154115b1561060e5761060d8282600560008673ffffffffffffffffffffffffffffffffffffffff1673ffffffffffffffffffffffffffffffffffffffff16815260200190815260200160002084815481106105f6577f4e487b7100000000000000000000000000000000000000000000000000000000600052603260045260246000fd5b9060005260206000209060040201600301546118a0565b5b808061061990612a9d565b91505061040c565b5050565b6006602052816000526040600020818154811061064157600080fd5b906000526020600020016000915091509054906101000a900473ffffffffffffffffffffffffffffffffffffffff1681565b80600460003373ffffffffffffffffffffffffffffffffffffffff1673ffffffffffffffffffffffffffffffffffffffff1681526020019081526020016000205410156106f5576040517f08c379a00000000000000000000000000000000000000000000000000000000081526004016106ec90612846565b60405180910390fd5b80600460003373ffffffffffffffffffffffffffffffffffffffff1673ffffffffffffffffffffffffffffffffffffffff16815260200190815260200160002060008282546107449190612a0b565b92505081905550600160009054906101000a900473ffffffffffffffffffffffffffffffffffffffff1673ffffffffffffffffffffffffffffffffffffffff1663a9059cbb33836040518363ffffffff1660e01b81526004016107a89291906125d9565b602060405180830381600087803b1580156107c257600080fd5b505af11580156107d6573d6000803e3d6000fd5b505050506040513d601f19601f820116820180604052508101906107fa9190612110565b5050565b670de0b6b3a76400008361081291906129b1565b92503373ffffffffffffffffffffffffffffffffffffffff168573ffffffffffffffffffffffffffffffffffffffff161415610883576040517f08c379a000000000000000000000000000000000000000000000000000000000815260040161087a90612706565b60405180910390fd5b6000600760008773ffffffffffffffffffffffffffffffffffffffff1673ffffffffffffffffffffffffffffffffffffffff168152602001908152602001600020600086815260200190815260200160002060000154141561091a576040517f08c379a000000000000000000000000000000000000000000000000000000000815260040161091190612826565b60405180910390fd5b82600760008773ffffffffffffffffffffffffffffffffffffffff1673ffffffffffffffffffffffffffffffffffffffff16815260200190815260200160002060008681526020019081526020016000206000015410156109b0576040517f08c379a00000000000000000000000000000000000000000000000000000000081526004016109a7906126e6565b60405180910390fd5b81600760008773ffffffffffffffffffffffffffffffffffffffff1673ffffffffffffffffffffffffffffffffffffffff16815260200190815260200160002060008681526020019081526020016000206001015414610a45576040517f08c379a0000000000000000000000000000000000000000000000000000000008152600401610a3c90612726565b60405180910390fd5b80600760008773ffffffffffffffffffffffffffffffffffffffff1673ffffffffffffffffffffffffffffffffffffffff16815260200190815260200160002060008681526020019081526020016000206002015414610ada576040517f08c379a0000000000000000000000000000000000000000000000000000000008152600401610ad1906126c6565b60405180910390fd5b610af668056bc75e2d6310000084611e1990919063ffffffff16565b600460008773ffffffffffffffffffffffffffffffffffffffff1673ffffffffffffffffffffffffffffffffffffffff1681526020019081526020016000205411610b76576040517f08c379a0000000000000000000000000000000000000000000000000000000008152600401610b6d906127e6565b60405180910390fd5b610b898382611e1990919063ffffffff16565b600460003373ffffffffffffffffffffffffffffffffffffffff1673ffffffffffffffffffffffffffffffffffffffff1681526020019081526020016000205411610c09576040517f08c379a0000000000000000000000000000000000000000000000000000000008152600401610c00906127c6565b60405180910390fd5b600115156003600086815260200190815260200160002060009054906101000a900460ff16151514610c70576040517f08c379a0000000000000000000000000000000000000000000000000000000008152600401610c67906127a6565b60405180910390fd5b610c8c68056bc75e2d6310000084611e1990919063ffffffff16565b600460008773ffffffffffffffffffffffffffffffffffffffff1673ffffffffffffffffffffffffffffffffffffffff1681526020019081526020016000206000828254610cda9190612a0b565b92505081905550610d4783600760008873ffffffffffffffffffffffffffffffffffffffff1673ffffffffffffffffffffffffffffffffffffffff168152602001908152602001600020600087815260200190815260200160002060020154611e1990919063ffffffff16565b600460003373ffffffffffffffffffffffffffffffffffffffff1673ffffffffffffffffffffffffffffffffffffffff1681526020019081526020016000206000828254610d959190612a0b565b92505081905550610e0283600760008873ffffffffffffffffffffffffffffffffffffffff1673ffffffffffffffffffffffffffffffffffffffff168152602001908152602001600020600087815260200190815260200160002060020154611e1990919063ffffffff16565b600460008773ffffffffffffffffffffffffffffffffffffffff1673ffffffffffffffffffffffffffffffffffffffff1681526020019081526020016000206000828254610e50919061295b565b9250508190555082600760008773ffffffffffffffffffffffffffffffffffffffff1673ffffffffffffffffffffffffffffffffffffffff16815260200190815260200160002060008681526020019081526020016000206000016000828254610eba9190612a0b565b92505081905550600560003373ffffffffffffffffffffffffffffffffffffffff1673ffffffffffffffffffffffffffffffffffffffff16815260200190815260200160002060405180608001604052808773ffffffffffffffffffffffffffffffffffffffff16815260200185815260200184815260200186815250908060018154018082558091505060019003906000526020600020906004020160009091909190915060008201518160000160006101000a81548173ffffffffffffffffffffffffffffffffffffffff021916908373ffffffffffffffffffffffffffffffffffffffff1602179055506020820151816001015560408201518160020155606082015181600301555050600660008673ffffffffffffffffffffffffffffffffffffffff1673ffffffffffffffffffffffffffffffffffffffff168152602001908152602001600020339080600181540180825580915050600190039060005260206000200160009091909190916101000a81548173ffffffffffffffffffffffffffffffffffffffff021916908373ffffffffffffffffffffffffffffffffffffffff1602179055505050505050565b6005602052816000526040600020818154811061108a57600080fd5b9060005260206000209060040201600091509150508060000160009054906101000a900473ffffffffffffffffffffffffffffffffffffffff16908060010154908060020154908060030154905084565b60008054906101000a900473ffffffffffffffffffffffffffffffffffffffff1673ffffffffffffffffffffffffffffffffffffffff163373ffffffffffffffffffffffffffffffffffffffff1614611169576040517f08c379a000000000000000000000000000000000000000000000000000000000815260040161116090612766565b60405180910390fd5b80600260006101000a81548173ffffffffffffffffffffffffffffffffffffffff021916908373ffffffffffffffffffffffffffffffffffffffff16021790555050565b60008054906101000a900473ffffffffffffffffffffffffffffffffffffffff1681565b600160009054906101000a900473ffffffffffffffffffffffffffffffffffffffff1681565b600260009054906101000a900473ffffffffffffffffffffffffffffffffffffffff1681565b6007602052816000526040600020602052806000526040600020600091509150508060000154908060010154908060020154905083565b6060600660008373ffffffffffffffffffffffffffffffffffffffff1673ffffffffffffffffffffffffffffffffffffffff16815260200190815260200160002080548060200260200160405190810160405280929190818152602001828054801561131557602002820191906000526020600020905b8160009054906101000a900473ffffffffffffffffffffffffffffffffffffffff1673ffffffffffffffffffffffffffffffffffffffff16815260200190600101908083116112cb575b50505050509050919050565b600160009054906101000a900473ffffffffffffffffffffffffffffffffffffffff1673ffffffffffffffffffffffffffffffffffffffff166323b872dd3330846040518463ffffffff1660e01b8152600401611380939291906125a2565b602060405180830381600087803b15801561139a57600080fd5b505af11580156113ae573d6000803e3d6000fd5b505050506040513d601f19601f820116820180604052508101906113d29190612110565b5080600460003373ffffffffffffffffffffffffffffffffffffffff1673ffffffffffffffffffffffffffffffffffffffff1681526020019081526020016000206000828254611422919061295b565b9250508190555050565b60005b828290508169ffffffffffffffffffff16101561150f57600760003373ffffffffffffffffffffffffffffffffffffffff1673ffffffffffffffffffffffffffffffffffffffff168152602001908152602001600020600084848469ffffffffffffffffffff168181106114cc577f4e487b7100000000000000000000000000000000000000000000000000000000600052603260045260246000fd5b905060200201358152602001908152602001600020600080820160009055600182016000905560028201600090555050808061150790612ae6565b91505061142f565b505050565b6060600560008373ffffffffffffffffffffffffffffffffffffffff1673ffffffffffffffffffffffffffffffffffffffff168152602001908152602001600020805480602002602001604051908101604052809291908181526020016000905b8282101561161b57838290600052602060002090600402016040518060800160405290816000820160009054906101000a900473ffffffffffffffffffffffffffffffffffffffff1673ffffffffffffffffffffffffffffffffffffffff1673ffffffffffffffffffffffffffffffffffffffff168152602001600182015481526020016002820154815260200160038201548152505081526020019060010190611575565b505050509050919050565b60036020528060005260406000206000915054906101000a900460ff1681565b60046020528060005260406000206000915090505481565b68056bc75e2d63100000600460003373ffffffffffffffffffffffffffffffffffffffff1673ffffffffffffffffffffffffffffffffffffffff16815260200190815260200160002054116116e8576040517f08c379a00000000000000000000000000000000000000000000000000000000081526004016116df906126a6565b60405180910390fd5b600115156003600086815260200190815260200160002060009054906101000a900460ff1615151461174f576040517f08c379a000000000000000000000000000000000000000000000000000000000815260040161174690612786565b60405180910390fd5b428411611791576040517f08c379a000000000000000000000000000000000000000000000000000000000815260040161178890612746565b60405180910390fd5b6103e8831080156117a85750662386f26fc1000081115b80156117bc5750683635c9adc5dea0000081105b6117fb576040517f08c379a00000000000000000000000000000000000000000000000000000000081526004016117f290612866565b60405180910390fd5b6040518060600160405280670de0b6b3a76400008561181a91906129b1565b815260200183815260200182815250600760003373ffffffffffffffffffffffffffffffffffffffff1673ffffffffffffffffffffffffffffffffffffffff168152602001908152602001600020600086815260200190815260200160002060008201518160000155602082015181600101556040820151816002015590505050505050565b6000600260009054906101000a900473ffffffffffffffffffffffffffffffffffffffff1673ffffffffffffffffffffffffffffffffffffffff16633d763b77836040518263ffffffff1660e01b81526004016118fd9190612886565b60206040518083038186803b15801561191557600080fd5b505afa158015611929573d6000803e3d6000fd5b505050506040513d601f19601f8201168201806040525081019061194d9190612162565b9050600560008573ffffffffffffffffffffffffffffffffffffffff1673ffffffffffffffffffffffffffffffffffffffff16815260200190815260200160002083815481106119c6577f4e487b7100000000000000000000000000000000000000000000000000000000600052603260045260246000fd5b906000526020600020906004020160020154811015611ba457611a8368056bc75e2d63100000600560008773ffffffffffffffffffffffffffffffffffffffff1673ffffffffffffffffffffffffffffffffffffffff1681526020019081526020016000208581548110611a63577f4e487b7100000000000000000000000000000000000000000000000000000000600052603260045260246000fd5b906000526020600020906004020160010154611e1990919063ffffffff16565b600460008673ffffffffffffffffffffffffffffffffffffffff1673ffffffffffffffffffffffffffffffffffffffff1681526020019081526020016000206000828254611ad1919061295b565b92505081905550600560008573ffffffffffffffffffffffffffffffffffffffff1673ffffffffffffffffffffffffffffffffffffffff1681526020019081526020016000208381548110611b4f577f4e487b7100000000000000000000000000000000000000000000000000000000600052603260045260246000fd5b9060005260206000209060040201600080820160006101000a81549073ffffffffffffffffffffffffffffffffffffffff02191690556001820160009055600282016000905560038201600090555050611e13565b6000600560008673ffffffffffffffffffffffffffffffffffffffff1673ffffffffffffffffffffffffffffffffffffffff1681526020019081526020016000208481548110611c1d577f4e487b7100000000000000000000000000000000000000000000000000000000600052603260045260246000fd5b906000526020600020906004020160000160009054906101000a900473ffffffffffffffffffffffffffffffffffffffff169050611cf568056bc75e2d63100000600560008873ffffffffffffffffffffffffffffffffffffffff1673ffffffffffffffffffffffffffffffffffffffff1681526020019081526020016000208681548110611cd5577f4e487b7100000000000000000000000000000000000000000000000000000000600052603260045260246000fd5b906000526020600020906004020160010154611e1990919063ffffffff16565b600460008373ffffffffffffffffffffffffffffffffffffffff1673ffffffffffffffffffffffffffffffffffffffff1681526020019081526020016000206000828254611d43919061295b565b92505081905550600560008673ffffffffffffffffffffffffffffffffffffffff1673ffffffffffffffffffffffffffffffffffffffff1681526020019081526020016000208481548110611dc1577f4e487b7100000000000000000000000000000000000000000000000000000000600052603260045260246000fd5b9060005260206000209060040201600080820160006101000a81549073ffffffffffffffffffffffffffffffffffffffff02191690556001820160009055600282016000905560038201600090555050505b50505050565b6000611e258383611e2d565b905092915050565b60008060008019848609848602925082811083820303915050670de0b6b3a76400008110611e9257806040517fd31b3402000000000000000000000000000000000000000000000000000000008152600401611e899190612886565b60405180910390fd5b600080670de0b6b3a764000086880991506706f05b59d3b1ffff821190506000831415611f055780670de0b6b3a76400008581611ef8577f4e487b7100000000000000000000000000000000000000000000000000000000600052601260045260246000fd5b0401945050505050611f4b565b807faccb18165bd6fe31ae1cf318dc5b51eee0e1ba569b88cd74c1773b91fac1066960016204000080600003040186851186030262040000858803041702019450505050505b92915050565b600081359050611f6081612dfb565b92915050565b60008083601f840112611f7857600080fd5b8235905067ffffffffffffffff811115611f9157600080fd5b602083019150836020820283011115611fa957600080fd5b9250929050565b600081519050611fbf81612e12565b92915050565b600081359050611fd481612e29565b92915050565b600081519050611fe981612e29565b92915050565b60006020828403121561200157600080fd5b600061200f84828501611f51565b91505092915050565b6000806040838503121561202b57600080fd5b600061203985828601611f51565b925050602061204a85828601611fc5565b9150509250929050565b600080600080600060a0868803121561206c57600080fd5b600061207a88828901611f51565b955050602061208b88828901611fc5565b945050604061209c88828901611fc5565b93505060606120ad88828901611fc5565b92505060806120be88828901611fc5565b9150509295509295909350565b600080602083850312156120de57600080fd5b600083013567ffffffffffffffff8111156120f857600080fd5b61210485828601611f66565b92509250509250929050565b60006020828403121561212257600080fd5b600061213084828501611fb0565b91505092915050565b60006020828403121561214b57600080fd5b600061215984828501611fc5565b91505092915050565b60006020828403121561217457600080fd5b600061218284828501611fda565b91505092915050565b600080600080608085870312156121a157600080fd5b60006121af87828801611fc5565b94505060206121c087828801611fc5565b93505060406121d187828801611fc5565b92505060606121e287828801611fc5565b91505092959194509250565b60006121fa838361221e565b60208301905092915050565b60006122128383612514565b60808301905092915050565b61222781612a3f565b82525050565b61223681612a3f565b82525050565b6000612247826128f8565b6122518185612928565b935061225c836128d8565b8060005b8381101561228d57815161227488826121ee565b975061227f8361290e565b925050600181019050612260565b5085935050505092915050565b60006122a582612903565b6122af8185612939565b93506122ba836128e8565b8060005b838110156122eb5781516122d28882612206565b97506122dd8361291b565b9250506001810190506122be565b5085935050505092915050565b61230181612a51565b82525050565b6000612314600f8361294a565b915061231f82612b48565b602082019050919050565b600061233760178361294a565b915061234282612b71565b602082019050919050565b600061235a600f8361294a565b915061236582612b9a565b602082019050919050565b600061237d60248361294a565b915061238882612bc3565b604082019050919050565b60006123a060158361294a565b91506123ab82612c12565b602082019050919050565b60006123c360138361294a565b91506123ce82612c3b565b602082019050919050565b60006123e660168361294a565b91506123f182612c64565b602082019050919050565b600061240960188361294a565b915061241482612c8d565b602082019050919050565b600061242c60198361294a565b915061243782612cb6565b602082019050919050565b600061244f601b8361294a565b915061245a82612cdf565b602082019050919050565b6000612472601e8361294a565b915061247d82612d08565b602082019050919050565b600061249560158361294a565b91506124a082612d31565b602082019050919050565b60006124b8601b8361294a565b91506124c382612d5a565b602082019050919050565b60006124db60208361294a565b91506124e682612d83565b602082019050919050565b60006124fe60218361294a565b915061250982612dac565b604082019050919050565b60808201600082015161252a600085018261221e565b50602082015161253d6020850182612569565b5060408201516125506040850182612569565b5060608201516125636060850182612569565b50505050565b61257281612a7d565b82525050565b61258181612a7d565b82525050565b600060208201905061259c600083018461222d565b92915050565b60006060820190506125b7600083018661222d565b6125c4602083018561222d565b6125d16040830184612578565b949350505050565b60006040820190506125ee600083018561222d565b6125fb6020830184612578565b9392505050565b6000608082019050612617600083018761222d565b6126246020830186612578565b6126316040830185612578565b61263e6060830184612578565b95945050505050565b60006020820190508181036000830152612661818461223c565b905092915050565b60006020820190508181036000830152612683818461229a565b905092915050565b60006020820190506126a060008301846122f8565b92915050565b600060208201905081810360008301526126bf81612307565b9050919050565b600060208201905081810360008301526126df8161232a565b9050919050565b600060208201905081810360008301526126ff8161234d565b9050919050565b6000602082019050818103600083015261271f81612370565b9050919050565b6000602082019050818103600083015261273f81612393565b9050919050565b6000602082019050818103600083015261275f816123b6565b9050919050565b6000602082019050818103600083015261277f816123d9565b9050919050565b6000602082019050818103600083015261279f816123fc565b9050919050565b600060208201905081810360008301526127bf8161241f565b9050919050565b600060208201905081810360008301526127df81612442565b9050919050565b600060208201905081810360008301526127ff81612465565b9050919050565b6000602082019050818103600083015261281f81612488565b9050919050565b6000602082019050818103600083015261283f816124ab565b9050919050565b6000602082019050818103600083015261285f816124ce565b9050919050565b6000602082019050818103600083015261287f816124f1565b9050919050565b600060208201905061289b6000830184612578565b92915050565b60006060820190506128b66000830186612578565b6128c36020830185612578565b6128d06040830184612578565b949350505050565b6000819050602082019050919050565b6000819050602082019050919050565b600081519050919050565b600081519050919050565b6000602082019050919050565b6000602082019050919050565b600082825260208201905092915050565b600082825260208201905092915050565b600082825260208201905092915050565b600061296682612a7d565b915061297183612a7d565b9250827fffffffffffffffffffffffffffffffffffffffffffffffffffffffffffffffff038211156129a6576129a5612b19565b5b828201905092915050565b60006129bc82612a7d565b91506129c783612a7d565b9250817fffffffffffffffffffffffffffffffffffffffffffffffffffffffffffffffff0483118215151615612a00576129ff612b19565b5b828202905092915050565b6000612a1682612a7d565b9150612a2183612a7d565b925082821015612a3457612a33612b19565b5b828203905092915050565b6000612a4a82612a5d565b9050919050565b60008115159050919050565b600073ffffffffffffffffffffffffffffffffffffffff82169050919050565b6000819050919050565b600069ffffffffffffffffffff82169050919050565b6000612aa882612a7d565b91507fffffffffffffffffffffffffffffffffffffffffffffffffffffffffffffffff821415612adb57612ada612b19565b5b600182019050919050565b6000612af182612a87565b915069ffffffffffffffffffff821415612b0e57612b0d612b19565b5b600182019050919050565b7f4e487b7100000000000000000000000000000000000000000000000000000000600052601160045260246000fd5b7f42616c616e636520746f6f206c6f770000000000000000000000000000000000600082015250565b7f57726f6e6720636f7374206f6620696e737572616e6365000000000000000000600082015250565b7f4e6f7420656e6f756768206c6f74730000000000000000000000000000000000600082015250565b7f50726f766964657220616e642074616b6572206d75737420626520646966666560008201527f72656e7400000000000000000000000000000000000000000000000000000000602082015250565b7f57726f6e6720696e737572616e6365206c6576656c0000000000000000000000600082015250565b7f45787069727920696e2074686520706173742e00000000000000000000000000600082015250565b7f4f6e6c79206f776e65722063616e20646f207468697300000000000000000000600082015250565b7f4e6f20737563682065787069727920617661696c61626c650000000000000000600082015250565b7f4578706972792064617465206973206e6f742076616c69642e00000000000000600082015250565b7f54616b657220686173206e6f7420656e6f7567682066756e64732e0000000000600082015250565b7f50726f766964657220686173206e6f7420656e6f7567682066756e64732e0000600082015250565b7f4e6f20737563682074616b657220616464726573730000000000000000000000600082015250565b7f50726f766964657220686173206e6f2073756368206f666665722e0000000000600082015250565b7f576974686472617720616d6f756e7420657863656564732062616c616e63652e600082015250565b7f507269636520616e64204c6f742044617461206e6f7420636f6d70617469626c60008201527f6500000000000000000000000000000000000000000000000000000000000000602082015250565b612e0481612a3f565b8114612e0f57600080fd5b50565b612e1b81612a51565b8114612e2657600080fd5b50565b612e3281612a7d565b8114612e3d57600080fd5b5056fea264697066735822122023c7b4c32b40e61df480eb64acf61beb1823de524b16d2d4ca1e2a183223412e64736f6c63430008040033",
  "linkReferences": {},
  "deployedLinkReferences": {}
}